:020000040800F2
:10000000000002202D8B0008991B00089B1B000894
:100010009D1B00089F1B0008A11B0008000000009A
:10002000000000000000000000000000816F0008D8
:10003000A31B00080000000021700008DB69000815
:100040007D8B00087D8B00087D8B00087D8B000870
:100050007D8B00087D8B00087D8B00087D8B000860
:100060007D8B00087D8B00087D8B00087D8B000850
:100070007D8B00087D8B00087D8B00087D8B000840
:100080007D8B00087D8B00087D8B00080000000040
:100090000000000000000000000000007D8B000850
:1000A000A51B00087D8B00087D8B00087D8B000858
:1000B0007D8B00087D8B00087D8B00087D8B000800
:1000C0007D8B00087D8B00087D8B00087D8B0008F0
:1000D0007D8B00087D8B00087D8B000800000000F0
:1000E0007D8B00087D8B00087D8B000800000000E0
:1000F0000000000000000000000000007D8B0008F0
:10010000000000007D8B00087D8B00087D8B0008BF
:1001100000000000000000000000000000000000DF
:100120007D8B0008BD1B00087D8B00087D8B0008BF
:100130007D8B0008000000000000000000000000AF
:100140000000000000000000000000007D8B00089F
:100150007D8B0008CD1B00087D8B0008DD1B00088F
:100160007D8B00087D8B000800000000000000006F
:10017000000000000000000000000000000000007F
:10018000000000007D8B000800000000000000005F
:080190007D8B00087D8B000847
:1001A00010B5054C237833B9044B13B10448AFF3B1
:1001B00000800123237010BD7001002000000000AA
:1001C0004484010808B5034B1BB103490348AFF34E
:1001D000008008BD00000000740100204484010874
:1001E00001F0FF01102A2BDB10F0070F08D010F8E8
:1001F000013B013A8B422DD010F0070F42B3F6D1EC
:10020000F0B441EA012141EA014122F007047FF004
:1002100000070023F0E80256083C85EA010586EA5B
:10022000010685FA47F5A3FA87F586FA47F6A5FA97
:1002300087F68EB9EED1F0BC01F0FF0102F00702A3
:1002400032B110F8013B013A83EA010313B1F8D14E
:100250000020704701387047002D06BF354603382F
:10026000073815F0010F07D1013015F4807F02BF68
:10027000013015F4C03F0130F0BC0138704700BFB9
:1002800081F0004102E000BF83F0004330B54FEA47
:1002900041044FEA430594EA050F08BF90EA020FB4
:1002A0001FBF54EA000C55EA020C7FEA645C7FEA47
:1002B000655C00F0E2804FEA5454D4EB5555B8BF6A
:1002C0006D420CDD2C4480EA020281EA030382EADB
:1002D000000083EA010180EA020281EA0303362D6D
:1002E00088BF30BD11F0004F4FEA01314FF4801C40
:1002F0004CEA113102D0404261EB410113F0004F52
:100300004FEA03334CEA133302D0524263EB430308
:1003100094EA050F00F0A780A4F10104D5F1200EA6
:100320000DDB02FA0EFC22FA05F2801841F1000101
:1003300003FA0EF2801843FA05F359410EE0A5F1D5
:1003400020050EF1200E012A03FA0EFC28BF4CF006
:10035000020C43FA05F3C01851EBE37101F00045BC
:1003600007D54FF0000EDCF1000C7EEB00006EEBC9
:100370000101B1F5801F1BD3B1F5001F0CD3490853
:100380005FEA30004FEA3C0C04F101044FEA4452AA
:1003900012F5800F80F09A80BCF1004F08BF5FEA31
:1003A000500C50F1000041EB045141EA050130BD11
:1003B0005FEA4C0C404141EB0101013C28BFB1F523
:1003C000801FE9D291F0000F04BF01460020B1FA6E
:1003D00081F308BF2033A3F10B03B3F120020CDA41
:1003E0000C3208DD02F1140CC2F10C0201FA0CF01F
:1003F00021FA02F10CE002F11402D8BFC2F1200C84
:1004000001FA02F120FA0CFCDCBF41EA0C01904039
:10041000E41AA2BF01EB0451294330BD6FEA040482
:100420001F3C1CDA0C340EDC04F11404C4F120026D
:1004300020FA04F001FA02F340EA030021FA04F37F
:1004400045EA030130BDC4F10C04C4F1200220FAD6
:1004500002F001FA04F340EA0300294630BD21FA14
:1004600004F0294630BD94F0000F83F4801306BFDA
:1004700081F480110134013D4EE77FEA645C18BFCE
:100480007FEA655C29D094EA050F08BF90EA020F65
:1004900005D054EA000C04BF1946104630BD91EA5D
:1004A000030F1EBF0021002030BD5FEA545C05D160
:1004B0004000494128BF41F0004130BD14F580049F
:1004C0003CBF01F5801130BD01F0004545F0FE4113
:1004D00041F470014FF0000030BD7FEA645C1ABF48
:1004E000194610467FEA655C1CBF0B46024650EA7F
:1004F000013406BF52EA033591EA030F41F40021AB
:1005000030BD00BF90F0000F04BF0021704730B530
:100510004FF4806404F132044FF000054FF0000105
:1005200050E700BF90F0000F04BF0021704730B5C6
:100530004FF4806404F1320410F0004548BF40429B
:100540004FF000013EE700BF42004FEAE2014FEAF0
:1005500031014FEA02701FBF12F07F4393F07F4FCB
:1005600081F06051704732F07F4208BF704793F0CE
:100570007F4F04BF41F40021704730B54FF46074E1
:1005800001F0004521F000411CE700BF50EA0102E4
:1005900008BF704730B54FF000050AE050EA01028D
:1005A00008BF704730B511F0004502D5404261EBFD
:1005B00041014FF4806404F132045FEA915C3FF43E
:1005C000D8AE4FF003025FEADC0C18BF03325FEADB
:1005D000DC0C18BF033202EBDC02C2F1200300FA8C
:1005E00003FC20FA02F001FA03FE40EA0E0021FAB1
:1005F00002F11444BDE600BF70B54FF0FF0C4CF49F
:10060000E06C1CEA11541DBF1CEA135594EA0C0F50
:1006100095EA0C0F00F0DEF82C4481EA030621EA8B
:100620004C5123EA4C5350EA013518BF52EA0335C6
:1006300041F4801143F4801338D0A0FB02CE4FF078
:100640000005E1FB02E506F00042E0FB03E54FF0A8
:100650000006E1FB03569CF0000F18BF4EF0010EA0
:10066000A4F1FF04B6F5007F64F5407404D25FEA9C
:100670004E0E6D4146EB060642EAC62141EA55514F
:100680004FEAC52040EA5E504FEACE2EB4F1FD0C91
:1006900088BFBCF5E06F1ED8BEF1004F08BF5FEA0F
:1006A000500E50F1000041EB045170BD06F00046C1
:1006B00046EA010140EA020081EA0301B4EB5C046E
:1006C000C2BFD4EB0C0541EA045170BD41F4801166
:1006D0004FF0000E013C00F3AB8014F1360FDEBF8B
:1006E000002001F0004170BDC4F10004203C35DA67
:1006F0000C341BDC04F11404C4F1200500FA05F3EA
:1007000020FA04F001FA05F240EA020001F000428A
:1007100021F0004110EBD37021FA04F642EB060100
:100720005EEA430E08BF20EAD37070BDC4F10C042A
:10073000C4F1200500FA04F320FA05F001FA04F2EE
:1007400040EA020001F0004110EBD37041F10001DA
:100750005EEA430E08BF20EAD37070BDC4F12005E5
:1007600000FA05F24EEA020E20FA04F301FA05F24D
:1007700043EA020321FA04F001F0004121FA04F2F5
:1007800020EA020000EBD3705EEA430E08BF20EAC5
:10079000D37070BD94F0000F0FD101F000464000FF
:1007A00041EB010111F4801F08BF013CF7D041EA81
:1007B000060195F0000F18BF704703F00046520085
:1007C00043EB030313F4801F08BF013DF7D043EA56
:1007D0000603704794EA0C0F0CEA135518BF95EA0C
:1007E0000C0F0CD050EA410618BF52EA4306D1D193
:1007F00081EA030101F000414FF0000070BD50EAB2
:10080000410606BF1046194652EA430619D094EA3B
:100810000C0F02D150EA013613D195EA0C0F05D125
:1008200052EA03361CBF104619460AD181EA030179
:1008300001F0004141F0FE4141F470014FF0000031
:1008400070BD41F0FE4141F4780170BD70B54FF0CC
:10085000FF0C4CF4E06C1CEA11541DBF1CEA13554C
:1008600094EA0C0F95EA0C0F00F0A7F8A4EB05042E
:1008700081EA030E52EA03354FEA013100F0888025
:100880004FEA03334FF0805545EA131343EA1263EE
:100890004FEA022245EA111545EA10654FEA0026A3
:1008A0000EF000419D4208BF964244F1FD0404F55C
:1008B000407402D25B084FEA3202B61A65EB0305B8
:1008C0005B084FEA32024FF480104FF4002CB6EB75
:1008D000020E75EB030E22BFB61A754640EA0C00F5
:1008E0005B084FEA3202B6EB020E75EB030E22BF35
:1008F000B61A754640EA5C005B084FEA3202B6EB76
:10090000020E75EB030E22BFB61A754640EA9C0034
:100910005B084FEA3202B6EB020E75EB030E22BF04
:10092000B61A754640EADC0055EA060E18D04FEAC2
:10093000051545EA16754FEA06164FEAC30343EA62
:1009400052734FEAC2025FEA1C1CC0D111F4801F2F
:100950000BD141EA00014FF000004FF0004CB6E728
:1009600011F4801F04BF01430020B4F1FD0C88BFC7
:10097000BCF5E06F3FF6AFAEB5EB030C04BFB6EBD2
:10098000020C5FEA500C50F1000041EB045170BDC5
:100990000EF0004E4EEA113114EB5C04C2BFD4EBF2
:1009A0000C0541EA045170BD41F480114FF0000E76
:1009B000013C90E645EA060E8DE60CEA135594EAF2
:1009C0000C0F08BF95EA0C0F3FF43BAF94EA0C0FF5
:1009D0000AD150EA01347FF434AF95EA0C0F7FF46A
:1009E00025AF104619462CE795EA0C0F06D152EABE
:1009F00003353FF4FDAE1046194622E750EA4106A2
:100A000018BF52EA43067FF4C5AE50EA41047FF4B2
:100A10000DAF52EA43057FF4EBAE12E74FF0FF3C17
:100A200006E000BF4FF0010C02E000BF4FF0010CE8
:100A30004DF804CD4FEA410C7FEA6C5C4FEA430C61
:100A400018BF7FEA6C5C1BD001B050EA410C0CBFB0
:100A500052EA430C91EA030F02BF90EA020F002012
:100A6000704710F1000F91EA030F58BF994208BF79
:100A700090422CBFD8176FEAE37040F00100704736
:100A80004FEA410C7FEA6C5C02D150EA013C07D18D
:100A90004FEA430C7FEA6C5CD6D152EA033CD3D0D8
:100AA0005DF8040B704700BF8446104662468C46D2
:100AB0001946634600E000BF01B5FFF7B7FF002805
:100AC00048BF10F1000F01BD4DF808EDFFF7F4FF2E
:100AD0000CBF012000205DF808FB00BF4DF808EDB9
:100AE000FFF7EAFF34BF012000205DF808FB00BFDC
:100AF0004DF808EDFFF7E0FF94BF012000205DF8FE
:100B000008FB00BF4DF808EDFFF7CEFF94BF0120B2
:100B100000205DF808FB00BF4DF808EDFFF7C4FFAB
:100B200034BF012000205DF808FB00BF4FEA4102FE
:100B300012F5001215D211D56FF47873B3EB62522F
:100B400012D94FEAC12343F0004343EA505311F056
:100B5000004F23FA02F018BF404270474FF00000E8
:100B6000704750EA013005D111F0004008BF6FF026
:100B7000004070474FF00000704700BF4FEA41024D
:100B8000B2F1E04324BFB3F5001CDCF1FE5C0DD9EB
:100B900001F0004C4FEAC0024CEA5070B2F1004F35
:100BA00040EB830008BF20F00100704711F0804F38
:100BB00021D113F13872BCBF01F00040704741F4FD
:100BC00080114FEA5252C2F11802C2F1200C10FA01
:100BD0000CF320FA02F018BF40F001004FEAC123E5
:100BE0004FEAD32303FA0CFC40EA0C0023FA02F389
:100BF0004FEA4303CCE77FEA625307D150EA01335F
:100C00001EBF4FF0FE4040F44000704701F000402E
:100C100040F0FE4040F40000704700BF7BB972B95D
:100C20000029BEBF00204FF0004106E008BF0028A9
:100C30001CBF6FF000414FF0FF3000F0BFB9ADF1C5
:100C4000080C6DE904CE002909DB002B1ADB00F04B
:100C50004DF8DDF804E0DDE9022304B070474042BE
:100C600061EB4101002B1BDB00F040F8DDF804E0F4
:100C7000DDE9022304B0404261EB4101524263EBE3
:100C800043037047524263EB430300F02FF8DDF853
:100C900004E0DDE9022304B0404261EB410170470A
:100CA000524263EB430300F021F8DDF804E0DDE994
:100CB000022304B0524263EB4303704753B94AB96D
:100CC000002908BF00281CBF4FF0FF314FF0FF3054
:100CD00000F074B9ADF1080C6DE904CE00F006F82F
:100CE000DDF804E0DDE9022304B070472DE9F047A8
:100CF000089D04468E46002B4DD18A42944669D900
:100D0000B2FA82F252B101FA02F3C2F1200120FAE2
:100D100001F10CFA02FC41EA030E94404FEA1C4830
:100D2000210CBEFBF8F61FFA8CF708FB16E341EA2C
:100D3000034306FB07F199420AD91CEB030306F1B2
:100D4000FF3080F01F81994240F21C81023E6344D3
:100D50005B1AA4B2B3FBF8F008FB103344EA034477
:100D600000FB07F7A7420AD91CEB040400F1FF338C
:100D700080F00A81A74240F207816444023840EAC9
:100D80000640E41B00261DB1D4400023C5E9004302
:100D90003146BDE8F0878B4209D9002D00F0EF8085
:100DA0000026C5E9000130463146BDE8F087B3FAB8
:100DB00083F6002E4AD18B4202D3824200F2F980A0
:100DC000841A61EB030301209E46002DE0D0C5E9A3
:100DD000004EDDE702B9FFDEB2FA82F2002A40F0EF
:100DE0009280A1EB0C014FEA1C471FFA8CFE0126F2
:100DF000200CB1FBF7F307FB131140EA01410EFB96
:100E000003F0884208D91CEB010103F1FF3802D23C
:100E1000884200F2CB804346091AA4B2B1FBF7F036
:100E200007FB101144EA01440EFB00FEA64508D959
:100E30001CEB040400F1FF3102D2A64500F2BB8096
:100E40000846A4EB0E0440EA03409CE7C6F12007E5
:100E5000B34022FA07FC4CEA030C20FA07F401FA2B
:100E600006F31C43F9404FEA1C4900FA06F3B1FBB4
:100E7000F9F8200C1FFA8CFE09FB181140EA014119
:100E800008FB0EF0884202FA06F20BD91CEB0101B6
:100E900008F1FF3A80F08880884240F28580A8F10E
:100EA00002086144091AA4B2B1FBF9F009FB101160
:100EB00044EA014100FB0EFE8E4508D91CEB0101FE
:100EC00000F1FF346CD28E456AD90238614440EAA1
:100ED0000840A0FB0294A1EB0E01A142C846A64621
:100EE00056D353D05DB1B3EB080261EB0E0101FAAA
:100EF00007F722FA06F3F1401F43C5E90071002607
:100F00003146BDE8F087C2F12003D8400CFA02FC5C
:100F100021FA03F3914001434FEA1C471FFA8CFE6C
:100F2000B3FBF7F007FB10360B0C43EA064300FB5C
:100F30000EF69E4204FA02F408D91CEB030300F1FA
:100F4000FF382FD29E422DD9023863449B1B89B2B1
:100F5000B3FBF7F607FB163341EA034106FB0EF33A
:100F60008B4208D91CEB010106F1FF3816D28B42E7
:100F700014D9023E6144C91A46EA004638E72E46B3
:100F8000284605E70646E3E61846F8E64B45A9D2AB
:100F9000B9EB020864EB0C0E0138A3E74646EAE71A
:100FA000204694E74046D1E7D0467BE7023B6144C8
:100FB00032E7304609E76444023842E7704700BF31
:100FC00010F8012B11F8013B012A28BF9A42F7D0F3
:100FD000D01A7047034613F8012B002AFBD1181AC8
:100FE0000138704708B506F0E3FC08BD08B5026893
:100FF000034B9A4200D008BD01F06EFDFBE700BF35
:101000000040014072B6FEE700B595B030220021E5
:1010100008A807F0EDFD00230393049305930693BE
:10102000079301931E4A116C41F080511164126CB8
:1010300002F080520192019A02931A4A116841F417
:1010400040411160126802F440420292029A022268
:10105000089201210B9110210C910E920F930823FD
:1010600010936423119312920423139308A800F0A1
:101070002BFE88B90F2303930223049300230593C7
:101080004FF4805206920793032103A801F06AF8F7
:1010900020B915B05DF804FBFFF7B4FFFFF7B2FF0E
:1010A000003802400070004008B501F0FBFCFFF77B
:1010B000ABFF00F019F800F00DFA00F0D1FC00F0E1
:1010C0002BFA00F07FFA00F02DFC00F0D5FA00F0CA
:1010D00085FC00F003FBFFF785FF05F08BFC00F0BB
:1010E000CDF805F099FCFEE72DE9F0418CB0002425
:1010F0000794089409940A940B9401943D4B1A6B3D
:1011000042F010021A631A6B02F010020192019A67
:1011100002941A6B42F004021A631A6B02F0040282
:101120000292029A03941A6B42F080021A631A6BBD
:1011300002F080020392039A04941A6B42F00102B7
:101140001A631A6B02F001020492049A05941A6B56
:1011500042F002021A631A6B02F002020592059A2B
:1011600006941A6B42F008021A631B6B03F0080323
:101170000693069BDFF88C80224640F6AA01404683
:1011800001F0CBF91C4F22464AF22001384601F00B
:10119000C4F91A4E22464FF44041304601F0BDF9E1
:1011A00040F6AA0307930125089509940A9407A914
:1011B000404601F0CBF84AF22003079308950994C2
:1011C0000A9407A9384601F0C1F80223079308944E
:1011D000099407A90A4801F0B9F84FF4404307936E
:1011E000089509940A9407A9304601F0AFF80CB0AD
:1011F000BDE8F0810038024000080240000C0240C7
:10120000000402400010024008B506F039F808BD9D
:1012100008B50FE00C4C204606F018F800222146D5
:101220000A480DF0F3F80A4B186805F0F3FC142097
:1012300005F06CFC4FF0FF31054B186805F0BEFC63
:101240000028E7D0F3E700BF086500201C650020F8
:101250001865002008B506F0DDFB4FF0FF31064BA6
:10126000186805F0ABFC0028F5D106F0E9F8024B50
:10127000186805F0CFFCEEE71865002008B50D48AA
:1012800005F052FC0C4B18600C4A00210C4805F08C
:10129000DFFB0C4B18600C4A00210C4805F0D8FB12
:1012A0000B4B18600B4A00210B4805F0D1FB0B4B90
:1012B000186008BD64850108186500201C850108B8
:1012C000111200088C01002040850108FD13000860
:1012D000CC30002074850108551200082C35002000
:1012E000F0B58FB02F4B01932F4B00932F4B304A0B
:1012F000304901200EF0AEF909A80DF0FDFC2E4B8F
:1013000009932E4B0A932E4B0B932E4B0C9309A84B
:101310000DF000FD00283ED02B4D02A80DF01AFD67
:10132000AE460DF1080CBCE80F00AEE80F00DCF88B
:101330000030CEF80030254C2B46002211462046C6
:101340000DF0E0FB224E2346224A234930460DF0A1
:1013500027FC0AF023FF0246204B314620480DF0BF
:101360005BFC0AF0C7FF02461E4F1F4B3146384652
:101370000DF086FC1D4E2B460122211D30460DF03E
:101380005FF9002300931A4B1A4A394630460DF094
:10139000CBF90FB0F0BD4FF49171174807F030FC56
:1013A000BAE700BFB58A0008778A0008698A000892
:1013B000518A000824680020E5880008098900088F
:1013C000298900086989000830350020246500203B
:1013D00000650020A48F0108C8840108D884010892
:1013E0001C65002020650020E48401088064002042
:1013F0000912000860650020A084010808B5FFF705
:101400006FFF03480DF044FB0A2005F07FFBF8E76F
:10141000806400200120704708B507F0B1FB162357
:1014200003604FF0FF3008BD08B54FF0FF31FFF704
:10143000F3FFFEE770B50C461646002506E0AFF355
:101440000080214601F8010B01350C46B542F6DB60
:10145000304670BD70B50C461646002504E014F801
:10146000010BAFF300800135B542F8DB304670BDAB
:1014700008B503460D4A12685AB10C4A1068034475
:101480000B4A11780B4A521A934206D8074A136046
:1014900008BD064A08491160EFE700BE07F070FB7F
:1014A0000C2303604FF0FF30F2E700BF946500208B
:1014B0000004000000000220A04201204FF0FF3095
:1014C00070474FF400534B60002070470120704775
:1014D0000020704710B582B0002401940D4B1A6BA8
:1014E00042F480021A631B6B03F480030193019B97
:1014F00022460521392001F08FFA392001F0C4FA83
:1015000022460521452001F087FA452001F0BCFA6A
:1015100002B010BD0038024008B50B480B4B036009
:101520000B4B436000238360C3604FF48042026131
:1015300043618361C361036201F040FD00B908BDEE
:10154000FFF760FDFBE700BF9865002000540040F6
:10155000A086010030B589B000230393049305935E
:10156000069307930268144B9A4201D009B030BD2C
:1015700000250195114C236B43F002032363236B79
:1015800003F002030193019B4FF4107303931223A2
:101590000493032306930423079303A9084800F048
:1015A000D5FE0295236C43F400132364236C03F4EB
:1015B00000130293029BD9E7005400400038024018
:1015C0000004024008B50E480E4B03604FF48273CE
:1015D000436000238360C3600361012242614FF4D2
:1015E000007282610822C2610362436283620A233D
:1015F000C36202F0C9F800B908BDFFF703FDFBE7BD
:10160000EC6500200030014000B589B00023039351
:1016100004930593069307930268154B9A4202D0F0
:1016200009B05DF804FB0021019103F584335A6C85
:1016300042F480525A645A6C02F480520192019A28
:1016400002911A6B42F001021A631B6B03F0010353
:101650000293029BE0230393022304930323069344
:101660000523079303A9034800F070FED8E700BFE5
:10167000003001400000024000B58DB0242200215E
:1016800003A807F0B5FA00230193029312484FF024
:1016900080420260436083604FF6FF72C260036164
:1016A00083610323039301230593099303A902F0A4
:1016B000ADFD50B900230193029301A9064802F041
:1016C0008FFF28B90DB05DF804FBFFF79BFCF1E735
:1016D000FFF798FCF6E700BF8C66002000B58DB0E0
:1016E0002422002103A807F083FA00230193029328
:1016F0001148124A0260436083604FF6FF72C26075
:10170000036183610323039301230593099303A9D1
:1017100002F07CFD50B900230193029301A9064811
:1017200002F05EFF28B90DB05DF804FBFFF76AFC1C
:10173000F1E7FFF767FCF6E71C67002000080040B0
:1017400000B583B00368154A934205D0144A93420A
:1017500016D003B05DF804FB00220092114B596CC7
:1017600041F0010159645B6C03F001030093009B9D
:101770000F21182001F050F9182001F085F9E8E751
:1017800000230193074B1A6C42F002021A641B6C8F
:1017900003F002030193019BDBE700BF000001405F
:1017A000000400400038024070B58AB00023059361
:1017B00006930793089309930368B3F1804F04D00D
:1017C0002E4A934238D00AB070BD0024009403F52D
:1017D0000E331A6C42F001021A641A6C02F0010214
:1017E0000092009A01941A6B42F001021A631A6B7C
:1017F00002F001020192019A02941A6B42F0020275
:101800001A631B6B03F002030293029B4FF4004325
:101810000593022606960125099505A9184800F0AA
:1018200095FD08230593069607940894099505A944
:10183000144800F08BFDC6E700210391124B1A6C8F
:1018400042F004021A641A6C02F004020392039A32
:1018500004911A6B42F008021A631B6B03F0080331
:101860000493049B4FF4405305930223069309937A
:1018700005A9064800F06AFDA5E700BF0008004082
:10188000000002400004024000380240000C024008
:1018900000B589B00023039304930593069307933F
:1018A00003681B4A934205D01A4A93421AD009B0E2
:1018B0005DF804FB00230193174B1A6B42F01002F2
:1018C0001A631B6B03F010030193019B4FF4007329
:1018D0000393022304930123079303A90F4800F005
:1018E00035FDE4E7002302930B4B1A6B42F0020232
:1018F0001A631B6B03F002030293029B20230393E2
:1019000002230493079303A9054800F01FFDCEE7C7
:101910000000014000040040003802400010024076
:101920000004024010B592B0002410941194099460
:101930000A940B940C940D940E940F94202221463B
:1019400001A807F055F92348234B036001234360A6
:10195000846040F28F13C36004614461846102F0CB
:1019600029FC002829D100231093119310A91948AC
:1019700002F036FE20BB6023099300220A920B92EC
:101980000C920D920E920F9209A9124802F0CCFC13
:10199000C8B90023019302930393049305934FF472
:1019A00000520692089301A90A4802F057FE68B94E
:1019B0000848FFF76DFF12B010BDFFF723FBD2E719
:1019C000FFF720FBD7E7FFF71DFBE2E7FFF71AFB66
:1019D000EEE700BF446600200000014000B58BB078
:1019E00000230893099301930293039304930593AF
:1019F000069307931848194A0260022242608360E6
:101A000040F28F12C2600361836102F0D3FBD0B950
:101A100000230893099308A90F4802F0E1FDA8B933
:101A200060230193002302930393059304220DEB9B
:101A30000201094802F078FC58B90748FFF728FF6F
:101A40000BB05DF804FBFFF7DDFAE1E7FFF7DAFA28
:101A5000E6E7FFF7D7FAF0E7D4660020000400407D
:101A600008B50A480A4B03604FF4E1334360002392
:101A70008360C36003610C2242618361C36102F031
:101A80000FFF00B908BDFFF7BDFAFBE7246800208F
:101A90000014014030B589B00023039304930593EB
:101AA000069307930268364B9A4201D009B030BDC5
:101AB00004460025019503F592335A6C42F020024A
:101AC0005A645A6C02F020020192019A02951A6B34
:101AD00042F004021A631B6B03F004030293029B9F
:101AE000C02303930223049303230693082307933D
:101AF00003A9244800F02AFC2348244B03604FF03C
:101B0000206343608560C5604FF480630361456175
:101B100085614FF48073C3614FF4403303624562C3
:101B200000F082FD28BB184BA3639C631848194B37
:101B300003604FF020634360402383600023C36051
:101B40004FF48062026143618361C3614FF44032AC
:101B50000262436200F068FD70B90D4B63639C63E1
:101B600000220521472000F057FF472000F08CFF9E
:101B70009CE7FFF747FAD6E7FFF744FAEDE700BF27
:101B800000140140000802406467002028640240FD
:101B9000C4670020A0640240FEE7FEE7FEE7FEE720
:101BA000FEE7704708B5034802F0CCF9024802F09E
:101BB000C9F908BD446600206868002008B50248DD
:101BC00000F02AFE08BD00BF6467002008B5024887
:101BD00000F022FE08BD00BFC467002008B502481F
:101BE00003F002F808BD00BF2468002000B583B0F0
:101BF000002200920D4B596C41F480415964596C9C
:101C000001F48041009100990192196C41F08051DA
:101C100019641B6C03F080530193019B0F216FF03B
:101C2000010000F0F9FE03B05DF804FB003802404B
:101C300030B589B00546002401941E4B5A6C42F41D
:101C400080325A645B6C03F480330193019B02A9D8
:101C500003A800F05DFB00F04BFB03461648A0FB19
:101C600003239B0C013B1548154A026040F2E73202
:101C7000C260436004618460846102F06FFA0446CC
:101C800010B1204609B030BD0C4802F01BF90446E3
:101C90000028F6D1182000F0F7FE0F2D01D90124FD
:101CA000EFE700222946182000F0B6FE054B1D6024
:101CB000E7E700BF0038024083DE1B43686800206E
:101CC0000040014008000020002800F0E08170B5CD
:101CD00082B00446036813F0010F3BD09F4B9B6812
:101CE00003F00C03042B2CD09C4B9B6803F00C03DB
:101CF000082B21D06368B3F5803F4FD0B3F5A02FF8
:101D000052D0964B1A6822F480321A601A6822F474
:101D100080221A606368002B50D000F0E9FE05466F
:101D20008E4B1B6813F4003F14D100F0E1FE401B02
:101D30006428F5D90320B1E1884B5B6813F4800F68
:101D4000D8D0864B1B6813F4003F03D06368002B88
:101D500000F09F81236813F0020F54D07F4B9B68E3
:101D600013F00C0F3ED07D4B9B6803F00C03082B47
:101D700033D0E368002B68D0794B01221A6000F061
:101D8000B7FE0546754B1B6813F0020F54D100F0E7
:101D9000AFFE401B0228F5D903207FE16F4A13688C
:101DA00043F480331360B5E76C4B1A6842F4802229
:101DB0001A601A6842F480321A60ABE700F098FEAD
:101DC0000546664B1B6813F4003FC3D000F090FE3D
:101DD000401B6428F5D9032060E1604B5B6813F475
:101DE000800FC6D15D4B1B6813F0020F03D0E36870
:101DF000012B40F05081594A136823F0F803216900
:101E000043EAC1031360236813F0080F42D06369EB
:101E10006BB3534B0122C3F8802E00F069FE0546D8
:101E20004E4B5B6F13F0020F34D100F061FE401B8C
:101E30000228F5D9032031E1484A136823F0F8035A
:101E4000216943EAC1031360DDE7454B00221A60B4
:101E500000F04EFE0546414B1B6813F0020FD2D036
:101E600000F046FE401B0228F5D9032016E13C4B4A
:101E70000022C3F8802E00F03BFE0546374B5B6F17
:101E800013F0020F06D000F033FE401B0228F5D9F4
:101E9000032003E1236813F0040F77D02F4B1B6C52
:101EA00013F0805F33D1002301932C4B1A6C42F066
:101EB00080521A641B6C03F080530193019B01252F
:101EC000284B1B6813F4807F23D0A368012B34D0E8
:101ED000052B38D0214B1A6F22F001021A671A6FB6
:101EE00022F004021A67A368002B3DD000F000FE28
:101EF00006461A4B1B6F13F0020F46D100F0F8FD97
:101F0000801B41F288339842F3D90320C6E00025B4
:101F1000D6E7144A136843F48073136000F0E8FDB9
:101F20000646104B1B6813F4807FCED100F0E0FD15
:101F3000801B0228F5D90320B0E0084A136F43F054
:101F400001031367CFE7054B1A6F42F004021A67CB
:101F50001A6F42F001021A67C5E700BF003802405D
:101F6000000047420070004000F0C2FD0646524BA0
:101F70001B6F13F0020F08D000F0BAFD801B41F276
:101F800088339842F3D9032088E0EDB9A369002B88
:101F900000F08380484A926802F00C02082A51D06F
:101FA000022B17D0454B00221A6600F0A1FD044613
:101FB000414B1B6813F0007F42D000F099FD001BDD
:101FC0000228F5D9032069E03B4A136C23F08053C3
:101FD0001364DBE7394B00221A6600F089FD0546E1
:101FE000354B1B6813F0007F06D000F081FD401BCD
:101FF0000228F5D9032051E0E369226A1343626A9B
:1020000043EA8213A26A5208013A43EA0243E26AAF
:1020100043EA0263284A5360284B01221A6600F003
:1020200067FD0446244B1B6813F0007F06D100F0C7
:102030005FFD001B0228F5D903202FE000202DE0D2
:1020400000202BE0012B2BD01B4B5B6803F480019D
:10205000E269914226D103F03F02216A8A4223D1EC
:10206000616A47F6C0721A40B2EB811F1ED103F4B9
:102070004031A26A5208013AB1EB024F18D103F085
:102080007063E26AB3EB026F14D1002006E0012016
:102090007047012002E0012000E0002002B070BD86
:1020A0000120FBE70120F9E70120F7E70120F5E730
:1020B0000120F3E70120F1E7003802400000474229
:1020C00008B5254B9B6803F00C03042B3FD0082B6D
:1020D0003FD1214B5A6802F03F025B6813F4800F36
:1020E00012D01D4B5968C1F388111C480023A1FB75
:1020F0000001FEF7E3FD184B5B68C3F301430133B6
:102100005B00B0FBF3F025E0134B5968C1F3881C6A
:102110004FEA4C11B1EB0C006EEB0E0E4FEA8E1332
:1021200043EA90638101091A63EB0E03DB0043EA83
:102130005173C90011EB0C0C43F100039902002309
:102140004FEA8C2041EA9C51FEF7B8FDD3E70348E3
:1021500000E0034808BD00BF0038024040787D0120
:102160000024F400002800F09B8070B50D46044662
:102170004F4B1B6803F007038B4208D2CBB24C4A8B
:102180001370136803F007038B4240F08B802368C1
:1021900013F0020F17D013F0040F04D0454A9368D0
:1021A00043F4E0539360236813F0080F04D0414ACE
:1021B000936843F4604393603E4A936823F0F003CE
:1021C000A1680B439360236813F0010F32D063685A
:1021D000012B21D09A1E012A25D9364A126812F005
:1021E000020F61D033498A6822F0030213438B60E7
:1021F00000F07EFC06462F4B9B6803F00C036268E0
:10220000B3EB820F16D000F073FC801B41F28833D1
:102210009842F0D9032042E0264A126812F4003FA7
:10222000E0D101203BE0234A126812F0007FD9D1AF
:10223000012034E01E4B1B6803F00703AB4207D9B3
:10224000EAB21B4B1A701B6803F00703AB422DD197
:10225000236813F0040F06D0164A936823F4E05362
:10226000E1680B439360236813F0080F07D0114A0D
:10227000936823F46043216943EAC1039360FFF745
:102280001FFF0C4B9B68C3F303130B4AD35CD8406E
:102290000A4B18600A4B1868FFF7CAFC002070BD93
:1022A000012070470120FAE70120F8E70120F6E756
:1022B000003C024000380240A08501080C000020CC
:1022C00008000020014B1868704700BF0C00002078
:1022D00008B5FFF7F7FF044B9B68C3F38223034A5B
:1022E000D35CD84008BD00BF00380240B08501086B
:1022F00008B5FFF7E7FF044B9B68C3F34233034A7B
:10230000D35CD84008BD00BF00380240B08501084A
:102310000F2303600B4B9A6802F0030242609A6835
:1023200002F0F00282609A6802F4E052C2609B6898
:10233000DB0803F4E0530361034B1B6803F007035E
:102340000B60704700380240003C024000230F2B16
:1023500000F2D28070B582B060E085685E00032430
:10236000B44025EA0405CC68B4402C438460456839
:1023700025EA02054C68C4F300129A402A434260E1
:102380005AE0DC08083450F8246003F00702950096
:102390000F22AA4026EA020E0A69AA4042EA0E0269
:1023A00040F824205CE0042200E0002202FA0EF251
:1023B0002A430234514D45F82420514A94686FEA6B
:1023C0000C0224EA0C054E6816F4801F01D04CEA7A
:1023D00004054B4CA560E46802EA04054E6816F457
:1023E000001F01D04CEA0405454CE560646802EA30
:1023F00004054E6816F4003F01D04CEA0405404C39
:102400006560246822404D6815F4803F01D04CEA95
:1024100004023B4C226001330F2B6BD801229A40FF
:102420000C6804EA020C32EA0404F4D14C6804F0AB
:102430000304013C012C90D94A6802F00302032AEC
:1024400009D0C4685D000322AA4024EA02048A6815
:10245000AA402243C2604A6802F00302022A90D0D6
:1024600004684FEA430E032202FA0EF224EA020441
:102470004A6802F0030202FA0EF2224302604A683E
:1024800012F4403FC7D0002201921E4A546C44F41B
:1024900080445464526C02F480420192019A9C0878
:1024A000A51C164A52F8255003F003024FEA820E8B
:1024B0000F2202FA0EF225EA0205134A90423FF477
:1024C00074AF02F5806290420ED002F580629042B5
:1024D0000CD002F5806290420AD002F580629042F0
:1024E0003FF461AF072261E701225FE702225DE767
:1024F00003225BE702B070BD704700BF00380140A7
:10250000003C0140003802400000024003691942CB
:1025100001D001207047002070470AB181617047E7
:1025200009048161704730B405682C6824F4802464
:102530002C60046863608368402B05D00368996051
:102540000368DA6030BC704703689A600368D9603A
:10255000F8E7000010B40368D9B210390C4AA2FBA6
:10256000014212090B4CA25CC2655F2909D923F410
:102570007F7323F0030304338365806D5DF8044BA0
:10258000704723F47F7323F003038365F5E700BFEF
:10259000ABAAAAAA98850108836A826992B9012B1D
:1025A0000AD0022B02D00BB100207047C36A13F08F
:1025B000807F28D100207047C36AB3F1C07F24D048
:1025C00000207047B2F5005F09D0022B25D9032BFC
:1025D00025D1C36A13F0807F23D100207047032BDD
:1025E00003D8DFE803F01404140A00207047C36A1C
:1025F00013F0807F0DD100207047C36AB3F1C07F14
:1026000009D0002070470120704701207047012049
:10261000704701207047012070470120704700205B
:10262000704701207047000070B5044600F060FA62
:10263000002C5BD00546022384F83530002384F853
:1026400034302268136823F00103136023681A688A
:1026500012F0010F0AD000F04BFA431B052BF5D9FD
:1026600020236365032084F8350070BD1A68204874
:1026700010406168A2680A43E1680A4321690A437D
:1026800061690A43A1690A43E1690A43216A0A436D
:102690000243616A04291ED01A602668756925F014
:1026A0000705636A1D43042B07D1A36A1D43E36A30
:1026B0001BB12046FFF770FF90B975612046FFF708
:1026C00049FFE26D3F239340836000206065012352
:1026D00084F83530C9E7E16A206B01430A43DBE740
:1026E00040236365012084F83500BEE70120BCE784
:1026F0003F8010F038B50446856D90F8340001280D
:102700002BD0012084F8340094F83500C0B20128A1
:1027100004D0002384F83430022038BD022084F82D
:102720003500002060652046FFF7FDFEE26D3F2387
:102730009340AB602268136843F016031360236C68
:1027400023B12268136843F00803136022681368FA
:1027500043F0010313600020DFE70220DDE770B5DE
:102760000446866D00F0C4F994F83530DBB2022BD4
:1027700006D080236365002384F83430012070BDC7
:1027800005462268136823F0160313602268536914
:1027900023F080035361236CE3B12268136823F0B4
:1027A000080313602268136823F001031360236891
:1027B0001B6813F0010F11D000F09AF9431B052B91
:1027C000F5D920236365032084F83500002384F8BD
:1027D0003430D4E7A36C002BDFD1E3E7E26D3F2375
:1027E0009340B360012384F83530002084F834002E
:1027F000C5E790F83530DBB2022B03D08023436568
:1028000001207047052380F835300268136823F0F3
:102810000103136000207047F0B583B00446002325
:102820000193724B1D68724BA3FB0535AD0A876D92
:102830003E68C26D08239340334210D003681A6883
:1028400012F0040F0BD01A6822F004021A60C26D55
:1028500008239340BB60436D43F001034365E26D81
:1028600001239340334209D02268526912F0800F4D
:1028700004D0BB60636D43F002036365E26D042323
:102880009340334209D02268126812F0020F04D03C
:10289000BB60636D43F004036365E26D10239340F6
:1028A000334224D02268126812F0080F1FD0BB6098
:1028B00023681A6812F4802F0DD01B6813F4002FC0
:1028C00004D1236C9BB12046984710E0A36C73B1F0
:1028D000204698470BE01A6812F4807F03D11A68EB
:1028E00022F008021A60236C0BB120469847E26D73
:1028F00020239340334255D02268126812F0100F03
:1029000050D0BB6094F83530DBB2052B0ED0236875
:102910001A6812F4802F33D01B6813F4002F2AD1C9
:10292000636C002B3ED0204698473BE0226813683A
:1029300023F0160313602268536923F08003536168
:10294000236CA3B12268136823F008031360E26DBF
:102950003F239340BB60012384F83530002384F883
:102960003430236D002B3FD0204698473CE0A36CC9
:10297000002BE7D1EBE7E36BA3B12046984711E0CA
:102980001A6812F4807F09D11A6822F010021A60C6
:10299000012384F83530002384F83430E36B0BB125
:1029A00020469847636DFBB1636D13F0010F17D09C
:1029B000052384F835302268136823F0010313607F
:1029C000019B01330193AB4204D823681B6813F0C9
:1029D000010FF5D1012384F83530002384F8343019
:1029E000E36C0BB12046984703B0F0BD0C0000200B
:1029F000B5814E1B074AD36823F4E0631B041B0C0C
:102A0000000200F4E060034343F0BF6343F400338B
:102A1000D360704700ED00E000B5194BDB68C3F3ED
:102A20000223C3F1070CBCF1040F28BF4FF0040CC4
:102A300003F1040EBEF1060F18D9033B4FF0FF3E21
:102A40000EFA0CFC21EA0C0199400EFA03F322EA7B
:102A50000303194300280BDB0901C9B200F16040F0
:102A600000F5614080F800135DF804FB0023E5E702
:102A700000F00F000901C9B2024B1954F4E700BF7E
:102A800000ED00E014ED00E0002807DB00F01F027D
:102A9000400901239340024A42F82030704700BFAA
:102AA00000E100E008B50B4B1A6842F400721A60AE
:102AB0001A6842F480621A601A6842F480721A60DE
:102AC0000320FFF797FF0F20FFF7B2F8FFF78EF80C
:102AD000002008BD003C0240034A1168034B1B78EC
:102AE0000B441360704700BFB06800200400002052
:102AF000014B1868704700BFB068002038B5044625
:102B0000FFF7F6FF0546B4F1FF3F02D0044B1B78F8
:102B10001C44FFF7EDFF401BA042FAD338BD00BFB5
:102B20000400002003685A6912F4806F01D100206C
:102B300070476FF480625A6100230363202280F89B
:102B40003D2080F83E30026C42F00402026480F8BE
:102B50003C30012070472DE9F04107460D46904674
:102B60001E4624E0FFF7C4FF069BC01AB04200D8FF
:102B7000EEB900233B63202287F83D2087F83E30E2
:102B80003A6C42F020023A6487F83C3001201EE0A3
:102B90003B689C6925EA040C1FFA8CFCBCFA8CFC8F
:102BA0004FEA5C1CE04511D1B6F1FF3FDAD1C5F325
:102BB0000743012BECD13B685B6925EA030C1FFA44
:102BC0008CFCBCFA8CFC4FEA5C1CEBE70020BDE8F7
:102BD000F0812DE9F04105460E46174698463DE046
:102BE0001A6842F400721A602B686FF480625A61AE
:102BF00000232B63202285F83D2085F83E302A6C87
:102C000042F004022A6485F83C30012034E0FFF7EA
:102C10006FFFA0EB0800B84200D8FFB900232B6378
:102C2000202285F83D2085F83E302A6C42F02002B3
:102C30002A6485F83C3001201EE02B689C6926EA56
:102C40000404A4B2003C18BF0124A4B12B685A6943
:102C500012F4806FC4D1B7F1FF3FD8D1C6F3074358
:102C6000012BEAD12B685C6926EA0404A4B2003C7B
:102C700018BF0124E9E70020BDE8F08170B50446E3
:102C80000D46164623685B6913F0800F1CD1204661
:102C9000FFF748FFD0B9B5F1FF3FF3D0FFF728FFAA
:102CA000801BA84201D8002DECD1002323632022F1
:102CB00084F83D2084F83E30226C42F020022264E9
:102CC00084F83C30012000E0002070BD0120FCE7CA
:102CD0002DE9F04385B004460D4691461F46DDF8C8
:102CE00030800D9E0368196841F480711960009668
:102CF000434600224FF00111FFF72DFF60B9236812
:102D000005F0FE051D613346424626492046FFF781
:102D100060FF68B1012008E023681B6813F4807F1E
:102D200002D04FF400732364032005B0BDE8F083A4
:102D30000023039323685A6903929B690393039BBF
:102D4000324641462046FFF799FF30B9012F0FD197
:102D500023685FFA89F61E61E7E7236C042B01D034
:102D60000120E2E72268136843F400731360F7E779
:102D700023684FEA19221A61324641462046FFF77E
:102D80007DFF20B923685FFA89F61E61CDE7236CC9
:102D9000042B01D00120C8E72268136843F40073B4
:102DA0001360F7E7020001002DE9F04784B0044604
:102DB0000D46164699460C9FDDF83480026813686C
:102DC00043F4806313600368196841F480711960EB
:102DD000CDF800803B4600224FF00111FFF7BBFE0B
:102DE00070B95FFA85FA236805F0FE051D61434658
:102DF0003A4641492046FFF7ECFE68B1012008E061
:102E000023681B6813F4807F02D04FF4007323649F
:102E1000032004B0BDE8F0870023039323685A69B8
:102E200003929B690393039B424639462046FFF772
:102E300025FF80B9B9F1010F18D12368F6B21E61E0
:102E4000424639462046FFF719FF68B3236C042B2E
:102E500024D00120DDE7236C042B01D00120D8E72A
:102E60002268136843F400731360F7E72368320A9B
:102E70001A61424639462046FFF700FF18B9236819
:102E8000F6B21E61DCE7236C042B01D00120C0E701
:102E90002268136843F400731360F7E7226813682D
:102EA00043F400731360D4E72268136843F480731B
:102EB0001360CDF800803B4600224FF00111204600
:102EC000FFF749FE68B922684AF0010313614346DF
:102ED0003A4609492046FFF77CFE002899D0012098
:102EE00097E723681B6813F4807F02D04FF40073C8
:102EF000236403208DE700BF0200010070B5044683
:102F00000D46164623685B6913F0040F1CD120465A
:102F1000FFF708FED0B9B5F1FF3FF3D0FFF7E8FDAA
:102F2000801BA84201D8002DECD10023236320226E
:102F300084F83D2084F83E30226C42F02002226466
:102F400084F83C30012000E0002070BD0120FCE747
:102F500070B505460C4616462B68596911F0400FAE
:102F600029D1596911F0100F15D1FFF7C1FD801B50
:102F7000A04201D8002CEFD100232B63202285F83A
:102F80003D2085F83E302A6C42F020022A6485F804
:102F90003C30012070BD6FF010025A6100232B639A
:102FA000202285F83D2085F83E302A6C2A6485F879
:102FB0003C300120EEE70020ECE70000002800F0A4
:102FC000CC8070B5044690F83D30002B77D0242398
:102FD00084F83D302268136823F0010313602268EF
:102FE000136843F4004313602268136823F400431A
:102FF0001360FFF76DF962685A4B9A4264D85A4BD6
:1030000098428CBF00230123002B40F0A880574931
:10301000A1FB00318B0C25686A6822F03F0242EA6E
:1030200091426A6021680A6A22F03F0266684D4D4B
:10303000AE424FD8013313430B622168CA6922F4B0
:103040004F4222F0FF026668464B9E424CD8431E18
:103050007600B3FBF6F3013340F6FC70034278D000
:10306000C3F30B031343CB6121680B6823F0C00348
:10307000E269206A024313430B6021688B6823F4E2
:10308000034323F0FF032269E068024313438B608C
:103090002168CB6823F0FF036269A06902431343F0
:1030A000CB602268136843F00103136000202064A2
:1030B000202384F83D30206384F83E0070BD80F802
:1030C0003C30FEF747FA82E7294B98428CBF002339
:1030D000012399E74FF4967505FB03F3254DA5FBF6
:1030E00003539B090133A6E7A368BBB9451E06EB52
:1030F000460CB5FBFCF50135C5F30B05B5FA85F5B6
:103100006D0945BBC3B9013806EB4603B0FBF3F3C9
:103110000133C3F30B0343F40043A3E7451E06EB5F
:10312000860C0CEB8C0CB5FBFCF50135C5F30B05DF
:10313000B5FA85F56D09E4E7013806EB860303EB84
:103140008303B0FBF3F30133C3F30B0343F44043B6
:1031500088E7042386E7012384E7012070470120E4
:10316000ACE700BFA08601007F841E0083DE1B4306
:10317000FF083D00D34D62102DE9F04383B00446B3
:103180000F46904699460C9EFFF7B2FC054694F810
:103190003D00C0B2202803D0022003B0BDE8F08378
:1031A0000095192301224B492046FFF7D4FC002843
:1031B00040F0898094F83C30012B00F08680012398
:1031C00084F83C3023681A6812F0010F03D11A68A2
:1031D00042F001021A602268136823F4006313604E
:1031E000212384F83D30402384F83E3000232364BB
:1031F0000A9B6362BDF82C306385638D2385364B53
:10320000E362019500964B46424639462046FFF759
:103210005FFD00285BD1238D002B35D02A46314637
:103220002046FFF72BFD20BB626A236812781A61E3
:10323000626A531C6362218D013989B22185638DD5
:103240009BB2013B9BB263852368586910F0040F61
:10325000E1D00029DFD052781A61636A01336362DA
:10326000238D013B2385638D9BB2013B9BB263851C
:10327000D1E7236C042B01D001208EE7226813686C
:1032800043F400731360F7E72A4631462046FFF700
:1032900035FE50B1236C042B01D001207DE722685C
:1032A000136843F400731360F7E72268136843F46C
:1032B00000731360202384F83D30002384F83E30EF
:1032C00084F83C3069E7022067E7022065E70120C7
:1032D00063E700BF020010000000FFFF2DE9F0438C
:1032E00087B004460F4690469946109EFFF700FCB3
:1032F000054694F83D00C0B2202804D00227384685
:1033000007B0BDE8F08300951923012288492046C3
:10331000FFF721FC002840F0438194F83C30012B5A
:1033200000F04081012384F83C3023681A6812F0D1
:10333000010F03D11A6842F001021A602268136873
:1033400023F400631360222384F83D30402384F883
:103350003E30002323640E9B6362BDF83C306385DE
:10336000638D2385734BE362019500964B4642467D
:1033700039462046FFF718FD0746002840F0148123
:10338000238D5BB9029323685A6902929A6902926B
:10339000029A1A6842F400721A6075E0012B0AD092
:1033A000022B1AD00023059323685A6905929B6962
:1033B0000593059B68E02268136823F4806313601B
:1033C0000023039323685A6903929A690392039A2C
:1033D0001A6842F400721A6056E02268136823F4F7
:1033E000806313602268136843F400631360002352
:1033F000049323685A6904929B690493049B43E0F5
:103400002A4631462046FFF7A3FD002840F0CE8033
:1034100023681A69636A1A70636A01336362238DD1
:10342000013B2385638D9BB2013B9BB263852BE0FF
:1034300000953346002240492046FFF78CFB0028C8
:1034400040F0B6802268136843F400731360236869
:103450001A69636A1A70626A531C6362238D013BA6
:103460002385638D9BB2013B9BB2638523681B69F7
:103470005370636A01336362238D013B2385638D3F
:103480009BB2013B9BB26385238D002B7FD0032B26
:1034900054D8012BB4D0022BCAD000953346002259
:1034A00025492046FFF757FB002840F0838022681B
:1034B000136823F48063136023681A69636A1A70BF
:1034C000636A01336362238D013B2385638D9BB265
:1034D000013B9BB263850095334600221649204686
:1034E000FFF739FB002867D12268136843F40073A3
:1034F000136023681A69636A1A70626A531C6362F4
:10350000238D013B2385638D9BB2013B9BB2638579
:1035100023681B695370636A01336362238D013B27
:103520002385638D9BB2013B9BB26385ACE700BFF3
:10353000020010000000FFFF040001002A4631468F
:103540002046FFF705FD002838D123681A69636A11
:103550001A70626A531C6362238D013B2385638D5D
:103560009BB2013B9BB263852368596911F0040F3C
:103570008AD01B695370636A01336362238D013BF8
:103580002385638D9BB2013B9BB263857CE720233F
:1035900084F83D30002384F83E3084F83C30AEE6B9
:1035A0000227ACE60227AAE60127A8E60127A6E63D
:1035B0000127A4E60127A2E60127A0E601279EE64F
:1035C0002DE9F04782B00546884617461E46FFF7AC
:1035D0008FFA0A9B1B1A03EB0609FFF789FA82464A
:1035E0002B4B1B68C3F3CB3309FB03F301932B680D
:1035F0009C6838EA04030CBF4FF0010C4FF0000C3C
:10360000BC4540D0B6F1FF3FF1D0FFF771FAA0EB17
:103610000A0048450AD2B9F1000F07D0019A02B159
:103620004A46019B013B01939146E0E72A685368B3
:1036300023F0E00353606B68B3F5827F0BD0AB6A75
:10364000B3F5005F14D0012385F85130002385F8CD
:103650005030032018E0AB68B3F5004F02D0B3F54B
:10366000806FECD12A68136823F040031360E6E70B
:103670002A68136823F4005313602A68136843F41C
:1036800000531360DFE7002002B0BDE8F08700BF01
:103690000C00002010B584B00446164B1868164B79
:1036A000A3FB0030400D4FF47A7303FB00F003904E
:1036B0006368B3F5827F0BD0039BBBB1039B013BD7
:1036C000039323689B6813F0800FF5D100200EE070
:1036D00000920B46002280212046FFF771FF30B197
:1036E000636D43F020036365032000E0002004B015
:1036F00010BD00BF0C000020819F5E1610B582B087
:1037000004460B464168B1F5827F14D06168B1F57B
:10371000827F2AD1A168B1F5806F19D00092002272
:1037200080212046FFF74CFF30B3636D43F0200348
:103730006365032020E08168B1F5004F02D0B1F548
:10374000806FE3D12068016821F040010160DDE76E
:103750000092002201212046FFF732FF60B1636D25
:1037600043F020036365032006E00092002201215C
:103770002046FFF725FF08B902B010BD636D43F086
:10378000200363650320F7E700285AD010B50446EC
:10379000436A33B94368B3F5827F05D00023C36120
:1037A00002E00023036143610023A36294F85130D7
:1037B000002B40D0022384F851302268136823F094
:1037C00040031360636803F48273A26802F4044246
:1037D0001343E26802F400621343226902F002021A
:1037E0001343626902F001021343A26902F40072FA
:1037F0001343E26902F038021343226A02F08002A6
:103800001343A26A02F40052216813430B60638BD6
:1038100003F00403626A02F01002216813434B6054
:103820002268D36923F40063D3610020606501231B
:1038300084F8513010BD84F850302046FDF7E4FE86
:10384000B8E7012070472DE9F04383B01D4690F89A
:103850005030012B00F0D180044688469146012368
:1038600080F85030FFF744F9074694F85160F6B2FB
:10387000012E40F0AF80B8F1000F00F0AC80B9F13C
:10388000000F00F0A880032384F851300023636503
:10389000C4F83080A4F83490A4F83690A363A387CA
:1038A000E38763642364A368B3F5004F1ED02368E5
:1038B0001A6812F0400F03D11A6842F040021A60F1
:1038C000E368B3F5006F1CD0636813B1B9F1010F61
:1038D00052D1226B236812781A73236B013323634E
:1038E000E38E9BB2013B9BB2E38645E022681368FE
:1038F00023F0400313602268136843F4804313608D
:10390000D5E7636813B1B9F1010F16D1226B2368B3
:103910001288DA60236B02332363E38E9BB2013B90
:103920009BB2E38609E0FFF7E3F8C01BA84202D38D
:10393000B5F1FF3F59D1002D59D0E38E9BB2002B3A
:1039400033D023689A6812F0020FECD0226B1288F1
:10395000DA60236B02332363E38E9BB2013B9BB29D
:10396000E386EAE7FFF7C4F8C01BA84202D3B5F12B
:10397000FF3F3ED1002D3ED0E38E9BB2ABB123681A
:103980009A6812F0020FEDD0226B12781A73236B33
:1039900001332363B4F836C01FFA8CFC0CF1FF3CF2
:1039A0001FFA8CFCA4F836C0E6E73A4629462046C2
:1039B000FFF770FE08B120236365A36833B9019354
:1039C0002368DA6801929B680193019B636D13B9C8
:1039D000002600E00226012384F85130002384F8F9
:1039E0005030304603B0BDE8F0830326F3E70326EA
:1039F000F1E70326EFE70326EDE70226F1E72DE9DD
:103A0000F04383B01F460A9D90F85030012B00F020
:103A10001081044688469146012380F85030FFF714
:103A200067F8064694F85130DBB26268012B0AD081
:103A3000B2F5827F40F0E380A268002A40F0E9807E
:103A4000042B40F0E880B8F1000F00F0E680B9F1F7
:103A5000000F00F0E480002F00F0E38094F8513074
:103A6000DBB2042B02D0052384F8513000236365B8
:103A7000C4F83890E787A787C4F83080E786A78620
:103A80002364636423681A6812F0400F03D11A6834
:103A900042F040021A60E368B3F5006F11D063682A
:103AA0000BB1012F0BD1226B236812781A73236B91
:103AB00001332363E38E9BB2013B9BB2E386012774
:103AC0006BE063680BB1012F0BD1226B2368128866
:103AD000DA60236B02332363E38E9BB2013B9BB21C
:103AE000E38601271CE023689A6812F0010F0ED0CC
:103AF000E28F92B25AB1DA68A36B1A80A36B0233D9
:103B0000A363E38F9BB2013B9BB2E3870127FEF7E0
:103B1000EFFF801BA84203D3B5F1FF3F40F0838045
:103B2000E38E9BB21BB9E38F9BB2002B53D023686B
:103B30009A6812F0020FD6D0E28E92B2002AD2D04A
:103B4000002FD0D0226B1288DA60236B02332363FC
:103B5000E38E9BB2013B9BB2E3860027C3E7236859
:103B60009A6812F0010F0ED0E28F92B25AB1DA6861
:103B7000A36B1A70A36B0133A363E38F9BB2013B6A
:103B80009BB2E3870127FEF7B3FF831BAB4202D34F
:103B9000B5F1FF3F49D1002D49D0E38E9BB213B957
:103BA000E38F9BB2BBB123689A6812F0020FD6D0A4
:103BB000E28E92B2002AD2D0002FD0D0226B12789F
:103BC0001A73236B01332363E38E9BB2013B9BB2D9
:103BD000E3860027C3E7324629462046FFF75AFD11
:103BE00048B9A36863B901932368DA6801929B68B6
:103BF0000193019B04E020236365012000E0022083
:103C0000012384F85130002384F8503003B0BDE81C
:103C1000F0830220F4E70220F2E70120F0E7012020
:103C2000EEE70120ECE70320EAE70320E8E70320C2
:103C3000E6E70220EAE72DE9F04383B00446884630
:103C400091461D464068B0F5827F38D094F85030D8
:103C5000012B00F0AE80012384F85030FEF748FFBE
:103C6000074694F85160F6B2012E40F08F80B8F10B
:103C7000000F00F08C80B9F1000F00F08880042361
:103C800084F8513000236365C4F83880A4F83C9070
:103C9000A4F83E902363A386E38623646364A36849
:103CA000B3F5004F19D023681A6812F0400F03D102
:103CB0001A6842F040021A60E3681BB341E0A3684F
:103CC000002BC3D1042384F85130009513460A46D3
:103CD0002046FFF794FE06465FE02268136823F053
:103CE000400313602268136823F480431360DAE70B
:103CF000FEF7FEFEC01BA84202D3B5F1FF3F50D134
:103D0000002D50D0E38F9BB2002B33D023689A68EC
:103D100012F0010FECD0A26B1B7B1370A36B01336D
:103D2000A363E38F9BB2013B9BB2E387EAE7FEF715
:103D3000DFFEC01BA84202D3B5F1FF3F35D1002DF5
:103D400035D0E38F9BB2ABB123689A6812F0010FB4
:103D5000EDD0DA68A36B1A80A36B0233A363B4F8C7
:103D60003EC01FFA8CFC0CF1FF3C1FFA8CFCA4F83F
:103D70003EC0E6E73A4629462046FFF7BFFC08B1B9
:103D800020236365636D13B9002600E0022601233A
:103D900084F85130002384F85030304603B0BDE839
:103DA000F0830326F3E70326F1E70326EFE7032674
:103DB000EDE70226F1E7000070B4036A23F0010387
:103DC0000362036A4668826922F073020C6844EA5F
:103DD000020523F002028B6813430D4CA04209D068
:103DE0000B4CA0420DD0466085614A684263036275
:103DF00070BC704723F00803CA68134323F0040320
:103E0000EEE726F440764A6932438E691643EAE7C4
:103E10000000014030B4036A23F480730362036A34
:103E20004568C26922F073020C68224323F40073D0
:103E30008C6843EA04230F4CA04209D00D4CA042E9
:103E40000ED04560C2614A68C263036230BC7047ED
:103E500023F40063CC6843EA042323F48063EDE792
:103E600025F440554C6945EA04158C6945EA04156A
:103E7000E7E700BF0000014030B4036A23F4805339
:103E80000362036A4468C26922F4E6420D6842EAAA
:103E9000052223F400538D6843EA0533074DA842F9
:103EA00006D04460C2614A680264036230BC704755
:103EB00024F480444D6944EA8514F2E7000001408F
:103EC0007047000090F83D30DBB2012B2FD1022368
:103ED00080F83D300268D36843F00103D360036883
:103EE000154A934218D0B3F1804F15D0A2F57C4209
:103EF000934211D002F5806293420DD002F58062A8
:103F0000934209D002F59A32934205D01A6842F0E2
:103F100001021A60002070479A6802F00702062A20
:103F200007D01A6842F001021A6000207047012091
:103F300070470020704700BF000001407047704785
:103F40007047704710B5044603681A6912F0020FF3
:103F500011D0DA6812F0020F0DD06FF002021A6170
:103F60000123037703689B6913F0030F70D0FFF7F9
:103F7000E6FF0023237723681A6912F0040F12D09A
:103F8000DA6812F0040F0ED06FF004021A610223F7
:103F9000237723689B6913F4407F5FD02046FFF7A7
:103FA000CEFF0023237723681A6912F0080F12D07E
:103FB000DA6812F0080F0ED06FF008021A610423BD
:103FC00023772368DB6913F0030F4ED02046FFF7F9
:103FD000B6FF0023237723681A6912F0100F12D05E
:103FE000DA6812F0100F0ED06FF010021A61082379
:103FF00023772368DB6913F4407F3DD02046FFF729
:104000009EFF0023237723681A6912F0010F03D063
:10401000DA6812F0010F36D123681A6912F0800FA6
:1040200003D0DA6812F0800F34D123681A6912F0D5
:10403000400F03D0DA6812F0400F32D123681A69BA
:1040400012F0200F03D0DA6812F0200F30D110BD2B
:10405000FFF774FF2046FFF773FF8AE72046FFF75C
:104060006DFF2046FFF76CFF9BE72046FFF766FFDA
:104070002046FFF765FFACE72046FFF75FFF2046CD
:10408000FFF75EFFBDE76FF001021A612046FCF703
:10409000ADFFC1E76FF080021A61204600F008FB17
:1040A000C3E76FF040021A612046FFF74AFFC5E7F9
:1040B0006FF020021A61204600F0F9FAC7E700000D
:1040C0000368254A90420ED0B0F1804F0BD0A2F584
:1040D0007C42904207D002F58062904203D002F504
:1040E0008062904203D123F070034A6813431A4A56
:1040F00090421AD0B0F1804F17D0A2F57C42904286
:1041000013D002F5806290420FD002F58062904297
:104110000BD002F59A32904207D002F580629042AD
:1041200003D002F58062904203D123F44073CA6841
:10413000134323F080034A69134303608B68C3620F
:104140000B688362044B984202D00123436170479D
:104150000B690363F9E700BF0000014040B310B5ED
:10416000044690F83D30F3B1022384F83D302146F7
:1041700051F8040BFFF7A4FF012384F8463084F8BC
:104180003E3084F83F3084F8403084F8413084F881
:10419000423084F8433084F8443084F8453084F861
:1041A0003D30002010BD80F83C30FFF789FEDBE792
:1041B0000120704740B310B5044690F83D30F3B18C
:1041C000022384F83D30214651F8040BFFF778FFB5
:1041D000012384F8463084F83E3084F83F3084F878
:1041E000403084F8413084F8423084F8433084F819
:1041F000443084F8453084F83D30002010BD80F80C
:104200003C30FDF79DFADBE701207047002856D0CF
:10421000F8B50D46044690F83D30002B4AD00223F5
:1042200084F83D302268936823F4804323F0070329
:104230009360214651F8040BFFF742FF21688A681A
:104240008B690E6A2868104323F4407C2CF0030C21
:10425000AA68AB6942EA032343EA0C0323F47C43D4
:1042600023F0FC03EA69EF6847EA022C4CEA030CEE
:104270002A6A13032A6943EA021343EA0C0326F06D
:10428000AA066A686D6942EA0512324388602168AD
:104290008B6123681A62012384F8463084F83E302B
:1042A00084F83F3084F8423084F8433084F83D305D
:1042B0000020F8BD80F83C30FDF776FAAFE701202A
:1042C0007047000030B4036A23F010030362036AEE
:1042D0004468826922F4E6420D6842EA052223F02E
:1042E00020038D6843EA05130E4DA84209D00D4DF9
:1042F000A8420ED0446082614A688263036230BC87
:10430000704723F08003CD6843EA051323F0400390
:10431000EDE724F440644D6944EA85048D6944EA7C
:104320008504E7E70000014038B590F83C30012BE8
:1043300066D004460D46012380F83C300C2A5AD83A
:10434000DFE802F0075959591B5959593059595941
:1043500044000068FFF730FD2268936943F00803CA
:1043600093612268936923F004039361226893693F
:1043700029690B43936100203EE00068FFF7A2FF2C
:104380002268936943F4006393612268936923F47C
:104390008063936122689369296943EA01239361E9
:1043A000002029E00068FFF735FD2268D36943F05B
:1043B0000803D3612268D36923F00403D361226820
:1043C000D36929690B43D361002015E00068FFF72A
:1043D00053FD2268D36943F40063D3612268D36933
:1043E00023F48063D3612268D369296943EA0123F6
:1043F000D361002000E00120002384F83C3038BD68
:104400000220FCE701F01F01012303FA01FC036A0B
:1044100023EA0C030362036A02FA01F10B4303620D
:104420007047000010B504460846002932D194F8C0
:104430003E30DBB2013B18BF0123002B63D10028C3
:1044400041D1022384F83E30012201462068FFF763
:10445000D9FF23682E4A934245D023682C4A9342C1
:1044600046D0B3F1804F43D0A2F57C4293423FD077
:1044700002F5806293423BD002F58062934237D0CE
:1044800002F59A32934233D01A6842F001021A6060
:10449000002037E0042908D008290DD094F84130D5
:1044A000DBB2013B18BF0123C7E794F83F30DBB212
:1044B000013B18BF0123C0E794F84030DBB2013B59
:1044C00018BF0123B9E7042805D0082807D0022324
:1044D00084F84130B8E7022384F83F30B4E7022380
:1044E00084F84030B0E75A6C42F400425A64B4E7B2
:1044F0009A6802F00702062A07D01A6842F0010201
:104500001A60002010BD0120FCE70020FAE700BF80
:104510000000014038B5044690F83E00C0B294F85F
:104520003F3094F84220D2B294F843C00D46B1B95E
:10453000012849D1012A48D1022384F83E3084F869
:1045400042307DB3042D39D0012200212068FFF7CD
:1045500059FF012204212068FFF754FF27E0DBB256
:104560005FFA8CFC042912D0012833D1012B2CD105
:10457000012A31D1BCF1010F30D1022384F83E3041
:1045800084F83F3084F8423084F84330D9E7012B77
:104590001CD1BCF1010F1BD1022384F83F3084F8F9
:1045A0004330CEE7012200212068FFF72BFF22686D
:1045B000136843F001031360002006E00122042188
:1045C0002068FFF71FFFF2E7012038BD0120FCE75C
:1045D0001846FAE70120F8E71846F6E71046F4E730
:1045E00090F83C30012B35D010B4012380F83C30DA
:1045F000022380F83D3003685A689C6822F0700CF2
:104600000A6842EA0C025A600368134A934212D0C5
:10461000B3F1804F0FD0A2F57C4293420BD002F54C
:104620008062934207D002F58062934203D002F584
:104630009A32934204D124F080044A6814439C6067
:10464000012380F83D30002380F83C3018465DF8A7
:10465000044B7047022070470000014090F83C3046
:10466000012B22D0012380F83C30CB6823F4407327
:104670008A68134323F480634A68134323F4006376
:104680000A68134323F480530A69134323F4005345
:104690004A69134323F48043CA691343026853648D
:1046A000002380F83C30184670470220704770475E
:1046B0007047026802F10C0353E8003F23F0C00387
:1046C0000C3242E800310029F3D1202380F83D303C
:1046D0007047026802F10C0353E8003F23F4907323
:1046E0000C3242E800310029F3D1026802F11403D0
:1046F00053E8003F23F00103143242E8003100295F
:10470000F3D1036B012B05D0202380F83E3000232A
:1047100003637047026802F10C0353E8003F23F083
:1047200010030C3242E800310029F3D1ECE790F895
:104730003D30DBB2212B01D0022070478368B3F5F6
:10474000805F17D0036A5A1C02621A7803685A60A5
:10475000C38C9BB2013B9BB2C3844BB90268D36844
:1047600023F08003D3600268D36843F04003D36032
:10477000002070470369002BE4D1036A1B8802689C
:10478000C3F308035360036A02330362E0E70000E7
:1047900038B504460268136923F44053C1680B43DB
:1047A000136183680269134342691343C2691A4360
:1047B0000168CB6823F4164323F00C031343CB604A
:1047C0000268536923F4407381690B4353610368A2
:1047D000314A934206D002F58062934202D0FDF73F
:1047E00077FD01E0FDF784FDE369B3F5004F29D0C3
:1047F0000021031849411B1841F10001C90041EA99
:104800005371DB00181863684FEA83024FEA937311
:1048100041F10001FCF752FA204DA5FB003251098D
:10482000642303FB11031B013233A5FB03235B0944
:1048300003F0F00202EB011203F00F0321681344AE
:104840008B6038BD0023021843EB0301121841F1BD
:104850000001C90041EA5271D200101841F1000173
:10486000626892185B41FCF729FA0C4DA5FB0032F7
:104870005109642303FB1103DB003233A5FB03233F
:104880005B095A0002F4F87202EB011203F007030D
:10489000216813448B60D4E7001001401F85EB5161
:1048A00058B310B5044690F83D300BB3242384F878
:1048B0003D302268D36823F40053D3602046FFF7CD
:1048C00067FF2268136923F49043136122685369D8
:1048D00023F02A0353612268D36843F40053D36062
:1048E00000202064202384F83D3084F83E3010BD41
:1048F00080F83C30FDF7CEF8D8E701207047000083
:1049000038B590F83D30DBB2202B38D10446002971
:1049100037D0002A37D090F83C30012B35D0012316
:1049200080F83C3001628284C28400250564212322
:1049300080F83D30436B1648D863636B15481864A4
:10494000636B1548D864636B1D6520681346021DB0
:10495000606BFDF7CFFE23686FF040021A6084F8A9
:104960003C50226802F1140353E8003F43F08003F7
:10497000143242E800310029F3D1002000E0022087
:1049800038BD0120FCE70120FAE70220F8E700BF6C
:10499000234A00088B4A00089B4A000810B50446C9
:1049A00003685A6990F83D30DBB2212B0AD02368A6
:1049B0005A6902F0400294F83E30DBB2222B19D043
:1049C000002010BD02F08002002AF0D0226802F11F
:1049D000140353E8003F23F08003143242E800310F
:1049E0000029F3D1606B08B1FDF7B9FE2046FFF74F
:1049F00060FEDCE7002AE3D0226802F1140353E8EA
:104A0000003F23F04003143242E800310029F3D183
:104A1000A06B08B1FDF7A3FE2046FFF75AFECFE7D3
:104A2000704708B50346806B1B681B6813F4807FD2
:104A30001AD10023C384026802F1140353E8003F33
:104A400023F08003143242E800310029F3D10268D8
:104A500002F10C0353E8003F43F040030C3242E8FC
:104A600000310029F3D108BDFFF7DAFFFBE708B5F5
:104A70000168CA6822F04002CA60202280F83D2006
:104A8000FFF7CEFF002008BD704708B5806BFFF729
:104A9000FBFF08BD70477047704710B5846B2368F3
:104AA0005A6994F83D30DBB2212B10D023685A6943
:104AB00002F0400294F83E30DBB2222B11D0236C7E
:104AC00043F0100323642046FFF7E6FF10BD02F019
:104AD0008002002AEAD00023E3842046FFF7E9FDA4
:104AE000E4E7002AEBD00023E3852046FFF7F1FD41
:104AF000E5E708B5806B0023C385C384FFF7CCFFCF
:104B000008BD704790F83E30DBB2222B67D1836836
:104B1000B3F5805F4DD0826AB3F5805F04D0002B7F
:104B200054D10369002B51D103685B681370836A09
:104B300001338362C38D9BB2013B9BB2C385002BC3
:104B40004FD100B583B00268D36823F02003D3604F
:104B50000268D36823F48073D3600268536923F03A
:104B600001035361202380F83E30036B012B33D1C6
:104B700000230363026802F10C0353E8003F23F0B3
:104B800010030C3242E800310029F3D103681A689F
:104B900012F0100F06D0002201921A6801925B6891
:104BA0000193019B818DFFF7ACFF002003B05DF8FE
:104BB00004FB0269002AAED1826A03685B68C3F312
:104BC00008031380836A02338362B3E703685B6878
:104BD00003F07F031370AAE7FFF75CFFE5E702200D
:104BE000704700207047000030B583B0044602686B
:104BF0001368D068516913F00F0505D113F0200F29
:104C000002D010F0200F19D12DB111F0010119D1EE
:104C100010F4907F16D1216B01297DD013F0800F05
:104C200003D010F0800F40F0158113F0400F03D037
:104C300010F0400F40F0128103B030BD2046FFF766
:104C400061FFF9E713F0010F06D010F4807F03D065
:104C5000226C42F00102226413F0040F04D019B157
:104C6000226C42F00202226413F0020F04D019B148
:104C7000226C42F00402226413F0080F07D010F0F7
:104C8000200F00D119B1226C42F008022264226C7C
:104C9000002AD1D013F0200F02D010F0200F29D11C
:104CA00023685B6903F04003226C12F0080F00D107
:104CB00063B32046FFF70DFD23685B6913F0400FD7
:104CC00020D0226802F1140353E8003F23F0400390
:104CD000143242E800310029F3D1A36B73B1614A69
:104CE0001A65A06BFDF785FD0028A5D0A06B036DAC
:104CF0009847A1E72046FFF705FFD1E72046FFF7D9
:104D0000CBFE99E72046FFF7C7FE95E72046FFF761
:104D1000C3FE002323648FE713F0100F3FF47EAF30
:104D200010F0100F3FF47AAF002301931368019342
:104D300053680193019B536913F0400F50D0A26B4D
:104D400013685B689BB2002B3FF476AFA18D99424C
:104D50007FF672AFE385D369B3F5807F37D02268E1
:104D600002F10C0353E8003F23F480730C3242E855
:104D700000310029F3D1226802F1140353E8003F07
:104D800023F00103143242E800310029F3D12268F4
:104D900002F1140353E8003F23F04003143242E8C9
:104DA00000310029F3D1202384F83E30002323630F
:104DB000226802F10C0353E8003F23F010030C3289
:104DC00042E800310029F3D1A06BFDF7C8FCA18DAA
:104DD000E38D9BB2C91A89B22046FFF792FE2BE7FA
:104DE000A18DE38D9BB2C91A89B2E38D9BB2002BD2
:104DF0003FF422AF00293FF41FAF226802F10C03F9
:104E000053E8003F23F490730C3242E8003000284E
:104E1000F3D1226802F1140353E8003F23F00103A9
:104E2000143242E800300028F3D1202384F83E30C9
:104E300000232363226802F10C0353E8003F23F0B0
:104E400010030C3242E800300028F3D12046FFF76F
:104E500058FEF1E62046FFF76AFCEDE62046FFF734
:104E600006FEE9E6F34A000808B5806B036B012BE8
:104E700002D0FFF710FE08BD818D4908FFF741FE03
:104E8000F9E708B50346806B1B681B6813F4807F45
:104E90002BD10023C385026802F10C0353E8003FC5
:104EA00023F480730C3242E800310029F3D1026808
:104EB00002F1140353E8003F23F00103143242E8E7
:104EC00000310029F3D1026802F1140353E8003FD6
:104ED00023F04003143242E800310029F3D12023AB
:104EE00080F83E30036B012B05D0036B012B0FD0F4
:104EF000FFF7D0FD08BD026802F10C0353E8003F44
:104F000023F010030C3242E800310029F3D1ECE722
:104F1000818DFFF7F6FDEDE730B583B0044613460B
:104F20008162828500250564222280F83E20826B02
:104F30002048D063A26B20481064A26B1F48D06445
:104F4000A26B156520680A46011DA06BFDF7D2FB18
:104F5000019523681A6801925B680193019B84F8AC
:104F60003C5023695BB1226802F10C0353E8003F17
:104F700043F480730C3242E800310029F3D12268F7
:104F800002F1140353E8003F43F00103143242E8F6
:104F900000310029F3D1226802F1140353E8003FE5
:104FA00043F04003143242E800310029F3D10020DD
:104FB00003B030BD834E0008694E00089B4A0008CC
:104FC00008B590F83E30DBB2202B0DD171B17AB12B
:104FD00090F83C30012B0DD0012380F83C300023A9
:104FE0000363FFF799FF00E0022008BD0120FCE702
:104FF0000120FAE70220F8E7034AD2F8883043F4A8
:105000007003C2F88830704700ED00E000F108033B
:1050100043604FF0FF328260C3600361002303608E
:10502000704700230361704743684B609A688A6049
:10503000516099600861036801330360704730B4C0
:105040000D68B5F1FF3F11D000F108031C465B6805
:105050001A68AA42FAD963684B6099608C606160F3
:10506000086103680133036030BC70470469F2E7EC
:105070000369416882688A60416851605A68824267
:1050800006D0002202611A68013A1A601868704757
:1050900082685A60F5E70346406A18B11B6B1868CE
:1050A000C0F13800704710B5044601F07BFFA26BD9
:1050B000E36B9A4204D0002401F096FF204610BD15
:1050C0000124F9E710B5044601F06CFFA36B23B986
:1050D000012401F089FF204610BD0024F9E770B5D6
:1050E00004461546866B026C5AB903681BB1002052
:1050F0000136A66370BD806801F0A0F90023A360AB
:10510000F6E76DB9406803F065FD226C63681344EF
:105110006360A268934219D3236863602846E7E777
:10512000C06803F057FD226C5142E3689B1AE360AC
:105130002268934202D2A3680B44E360022D01D09F
:105140000020D5E726B1013E0020D1E72846CFE771
:105150000020CDE70346026C6AB110B50846D96855
:105160001144D9609C68A14201D31968D960D968FB
:1051700003F030FD10BD704738B5054601F012FF51
:1051800095F8454064B201E0013C64B2002C0ADDB0
:105190006B6A43B105F1240001F038F80028F3D020
:1051A00001F0E4F8F0E7FF2385F8453001F01CFF3B
:1051B00001F0F8FE95F8444064B201E0013C64B2AD
:1051C000002C0ADD2B6943B105F1100001F01EF837
:1051D0000028F3D001F0CAF8F0E7FF2385F8443047
:1051E00001F002FF38BD38B5E0B10D46044601F0CC
:1051F000D9FE2368E26B216C01FB0230A060002025
:10520000A0636360013A02FB0133E360FF2384F88B
:10521000443084F84530FDB9236963B901F0E4FEF8
:10522000012038BD4FF0500383F31188BFF36F8F17
:10523000BFF34F8FFEE704F1100000F0E7FF0028F6
:10524000ECD04FF0E0234FF08052C3F8042DBFF3B1
:105250004F8FBFF36F8FE1E704F11000FFF7D6FE29
:1052600004F12400FFF7D2FED8E738B51D46049CB0
:105270000B4649B92460E063236401212046FFF70F
:10528000B2FF84F84C5038BD2260F4E740B94FF0CB
:10529000500383F31188BFF36F8FBFF34F8FFEE787
:1052A00010B584B01C46844653B192B189B94FF011
:1052B000500383F31188BFF36F8FBFF34F8FFEE767
:1052C0004FF0500383F31188BFF36F8FBFF34F8FFD
:1052D000FEE76AB150230393039B502B13D04FF08A
:1052E000500383F31188BFF36F8FBFF34F8FFEE737
:1052F0000029EFD04FF0500383F31188BFF36F8F75
:10530000BFF34F8FFEE7039B012384F846300094E0
:105310009DF818306046FFF7A8FF204604B010BD86
:1053200040B94FF0500383F31188BFF36F8FBFF381
:105330004F8FFEE7F0B583B00D461446064601FBDD
:1053400000F0503001F008FD074650B1002380F80E
:1053500046300090234600F1500229463046FFF7C0
:1053600084FF384603B0F0BDF0B585B0019288B136
:105370000F461D460446B1B1022D20D1E36B012B2F
:105380001DD04FF0500383F31188BFF36F8FBFF32D
:105390004F8FFEE74FF0500383F31188BFF36F8FF9
:1053A000BFF34F8FFEE7036C002BE5D04FF05003A7
:1053B00083F31188BFF36F8FBFF34F8FFEE700F0C9
:1053C000E1FF064658B9019B002B48D04FF050032F
:1053D00083F31188BFF36F8FBFF34F8FFEE7002673
:1053E0003DE02A4639462046FFF779FE636A7BB9DD
:1053F00048B14FF0E0234FF08052C3F8042DBFF3C3
:105400004F8FBFF36F8F01F0EFFD012005B0F0BDAE
:1054100004F1240000F0FAFE0028F4D04FF0E0235D
:105420004FF08052C3F8042DBFF34F8FBFF36F8F3F
:10543000E9E701F0D9FD0020E8E702A800F048FF05
:10544000012619E0002384F8443021E0002384F889
:10545000453023E02046FFF78FFE00F0B7FD01F056
:10546000A1FDA26BE36B9A42BBD3022DB9D0019B85
:10547000002BDED0002EE0D001F0B6FD00F00CFDD8
:1054800001F090FD94F8442052B2B2F1FF3FD9D020
:1054900094F8452052B2B2F1FF3FD7D001F0A4FDFD
:1054A00001A902A800F020FFD8B92046FFF7FBFDB4
:1054B0000028CFD0019904F1100000F073FE2046BF
:1054C000FFF75AFE00F082FD0028C8D14FF0E0231C
:1054D0004FF08052C3F8042DBFF34F8FBFF36F8F8F
:1054E000BDE72046FFF748FE00F070FD00208DE785
:1054F00048B108B5002181600160C1600B460A46D1
:10550000FFF732FF08BD704710B5024600210120A9
:10551000FFF706FF0446FFF7EBFF204610BD10B56E
:1055200082B00B460090002211460120FFF7AEFE2C
:105530000446FFF7DDFF204602B010BD38B538B194
:105540000446856800F018FF85420AD0002038BD67
:105550004FF0500383F31188BFF36F8FBFF34F8F6A
:10556000FEE7E368013BE3600BB10120EFE71A4679
:1055700019462046FFF7F8FE0120E8E72DE9F84339
:1055800090B10F4616461C460546B1B1022C20D1FB
:10559000EB6B012B1DD04FF0500383F31188BFF349
:1055A0006F8FBFF34F8FFEE74FF0500383F31188E7
:1055B000BFF36F8FBFF34F8FFEE7036C002BE5D077
:1055C0004FF0500383F31188BFF36F8FBFF34F8FFA
:1055D000FEE701F00DFEEFF311894FF0500383F366
:1055E0001188BFF36F8FBFF34F8FAA6BEB6B9A429B
:1055F00006D3022C04D0002089F31188BDE8F8837B
:1056000095F845804FFA88F8AB6B22463946284614
:10561000FFF765FDB8F1FF3F06D008F101035BB26B
:1056200085F845300120E7E76B6A0BB90120E3E715
:1056300005F1240000F0EAFD18B126B10120306028
:10564000DAE70120D8E70120D6E7F0B585B001926E
:1056500090B10F460446C1B100F094FE064600BB6F
:10566000019B002B5ED04FF0500383F31188BFF3F2
:105670006F8FBFF34F8FFEE74FF0500383F3118816
:10568000BFF36F8FBFF34F8FFEE7036C002BE3D0A8
:105690004FF0500383F31188BFF36F8FBFF34F8F29
:1056A000FEE700263EE039462046FFF753FD013D68
:1056B000A563236923B901F097FC012005B0F0BD73
:1056C00004F1100000F0A2FD0028F4D04FF0E02318
:1056D0004FF08052C3F8042DBFF34F8FBFF36F8F8D
:1056E000E9E701F081FC0020E8E702A800F0F0FD06
:1056F000012621E0002384F8443029E0002384F8C7
:1057000045302BE02046FFF737FD00F05FFC09E055
:105710002046FFF731FD00F059FC2046FFF7D2FC90
:1057200000283FD101F03EFCA56B002DBBD1019BB1
:10573000002BD6D0002ED8D001F056FC00F0ACFBE8
:1057400001F030FC94F844305BB2B3F1FF3FD1D0AC
:1057500094F845305BB2B3F1FF3FCFD001F044FC89
:1057600001A902A800F0C0FD0028D1D12046FFF712
:10577000A9FC0028C6D0019904F1240000F012FD14
:105780002046FFF7F9FC00F021FC0028CAD14FF0B9
:10579000E0234FF08052C3F8042DBFF34F8FBFF3C7
:1057A0006F8FBFE7002089E770B584B0019158B1D1
:1057B0000446036C8BB14FF0500383F31188BFF3A1
:1057C0006F8FBFF34F8FFEE74FF0500383F31188C5
:1057D000BFF36F8FBFF34F8FFEE700F0D3FD054699
:1057E00050B9019B5BB14FF0500383F31188BFF3B5
:1057F0006F8FBFF34F8FFEE70026354655E0064614
:1058000053E0013BA36323683BB123694BB901F02B
:10581000EBFB0126304604B070BD00F0A7FEA0608F
:10582000F3E704F1100000F0F1FC0028EFD04FF096
:10583000E0234FF08052C3F8042DBFF34F8FBFF326
:105840006F8FE4E746B14FF0500383F31188BFF345
:105850006F8FBFF34F8FFEE701F0C6FBDAE702A8B8
:1058600000F036FD01252AE0002384F8443032E0C0
:10587000002384F8453034E001F094FBA06800F088
:1058800091FD064601F0B0FB3BE02046FFF774FCBB
:1058900000F09CFB09E02046FFF76EFC00F096FB51
:1058A0002046FFF70FFC002842D101F07BFBA36BE1
:1058B000002BA6D1019B002BC4D0002DCFD001F02E
:1058C00093FB00F0E9FA01F06DFB94F844305BB211
:1058D000B3F1FF3FC8D094F845305BB2B3F1FF3F5E
:1058E000C6D001F081FB01A902A800F0FDFC002850
:1058F000D1D12046FFF7E6FB0028C6D02368002B55
:10590000BAD0019904F1240000F04CFC2046FFF7C6
:1059100033FC00F05BFB0028C7D14FF0E0234FF0D1
:105920008052C3F8042DBFF34F8FBFF36F8FBCE7D6
:105930000EB900266EE701F035FB2046FFF7ABFB02
:105940000146A06800F0C2FD01F04EFBF1E780B116
:1059500070B50C460546866800F00EFD864211D0F3
:1059600021462846FFF720FF80B1EB680133EB604A
:105970000CE04FF0500383F31188BFF36F8FBFF338
:105980004F8FFEE7EB680133EB60012070BD000034
:105990000023072B0CD8074A52F833200AB10133F1
:1059A000F7E7044A42F8331002EBC303586070472C
:1059B000704700BFB468002070B504460D46164617
:1059C00001F0F0FA94F844305BB2B3F1FF3F0DD030
:1059D00094F845305BB2B3F1FF3F0BD001F004FB0C
:1059E000A36B5BB12046FFF7C7FB70BD002384F8B3
:1059F0004430EDE7002384F84530EFE7324629468E
:105A000004F1240000F0E6FBECE70000084B1B6803
:105A10001B6823B9074B4FF0FF321A607047044BE5
:105A20001B68DB68DB685A68024B1A60704700BF6E
:105A3000F8680020A06D00202DE9F04780460D4653
:105A400017469946089EDDF824A00A9C9200A521DD
:105A5000206B03F0CDF8236B07F18042013A03EB92
:105A6000820727F00707B5B34FF0000CBCF10F0F0A
:105A70000BD815F80C2004EB0C0383F8342015F830
:105A80000C3013B10CF1010CF0E7002384F8433023
:105A9000372E00D93726E662E66400252565201DED
:105AA000FFF7BFFA04F11800FFF7BBFA2461C6F153
:105AB0003806A6616462656584F858504A464146D6
:105AC000384601F043FA2060BAF1000F01D0CAF85D
:105AD0000040BDE8F087002384F83430D8E70000A8
